:020000040800F2
:10000000780400200101000835210008311800089B
:1000100031210008ED0B0008192A0008000000003B
:10002000000000000000000000000000F5230008B0
:10003000910D000800000000652200080925000855
:100040001B0100081B0100081B0100081B01000820
:100050001B0100081B010008250E00081B010008F9
:10006000590E00081B0100081B0100081B010008B5
:100070001B0100081B0100081B0100081B010008F0
:100080001B0100081B0100081B0100081B010008E0
:100090001B0100081B0100081B0100081B010008D0
:1000A0001B0100081B0100081B0100081B010008C0
:1000B0001B0100086D250008F52500081B0100083C
:1000C0001B0100081B0100081B0100081B010008A0
:1000D0001B0100081B0100081B0100081B01000890
:1000E0001B0100081B0100081B010008DFF80CD0F1
:1000F00000F0BAFB004800473533000878040020C0
:100100000648804706480047FEE7FEE7FEE7FEE7B1
:10011000FEE7FEE7FEE7FEE7FEE7FEE70D25000847
:10012000ED000008D2B201E000F8012B491EFBD21D
:1001300070470022F6E710B513460A4604461946F2
:10014000FFF7F0FF204610BDF0B480EA0102D40FA3
:100150004200B2EB410F02D20246084611464A0065
:1001600042D0C30DDDB2C1F3C752AD1A202D35DA2E
:10017000C1F3160141F4000204B15242C5F1200658
:1001800002FA06F12A411044B3EBD05F23D0C4B188
:10019000012DA0EBC35009DCF0BC4FF0004202EA95
:1001A000C352DBB200F5000000F0FBB9400000F1E3
:1001B000807000EBC350A0F1807040EAD17049001C
:1001C00009E0490841EAC071A0EBC35000F5000006
:1001D000400800EBC350F0BC00F0DAB961420122E4
:1001E00002EB4101001BF6E7F0BC704781F00041D3
:1001F000AAE780F00040A7E780EA010210B502F00C
:100200000043400022D04A001FD0010E01EB1261D2
:10021000C0F35600C2F3560240F4000042F400025C
:10022000A0FB022000047F39140400D0401C50EAD7
:10023000124001D44000491EC2B20C0604EBD0109B
:10024000401C4008802A02D003E0002010BD20F0AE
:100250000100002900DA0020184310BD30B480EA04
:10026000010202F0004530F0004221F0004013D0BE
:1002700090B1C30DD40DC2F31601C0F31600E41AF9
:1002800041F4000140F400027D34914201D3641C2A
:1002900000E04900002C02DA30BC002070474FF427
:1002A00000000023914201D3891A034340084FEA1A
:1002B0004101F7D151B1914202D14FF0004105E027
:1002C00002D24FF0010101E06FF0010103EBC450D5
:1002D000284430BC00F05CB92DE9FE4F81EA0304EC
:1002E00004F0004421F0004100944FF0000B23F093
:1002F000004350EA01045ED052EA03045BD0C3F32A
:100300000A54C1F30A552C44A4F2F3340194A0FB1F
:100310000254C1F3130141F48011C3F3130343F4F6
:10032000801301FB024400FB034E840A970A44EA4F
:10033000815447EA8357A4FB076802958D0A05FBA1
:1003400007854FEA932C04FB0C542705029D4FEAC6
:10035000065847EA1637B5EB08056EEB070C870E13
:10036000920E47EA811742EA8312A7FB0201B6EB1D
:100370000B0164EB00042B0D43EA0C335E1844EBD5
:100380001C50DA465146E7FB0201C5F313044FEA5D
:100390000B3343EA14534FEA0432019C43EA060349
:1003A000A4F10C040294009CCDE900B400F036F9ED
:1003B00003B0BDE8F08F00200146F9E72DE9F04DCC
:1003C00081EA030404F0004B21F0004514464FF08D
:1003D000000A23F0004150EA050220D054EA01024D
:1003E0001DD0C5F30A570246C5F31303C1F313002A
:1003F000C1F30A5640F4801543F48013A7EB0608B6
:10040000101BD64608F2FD3873EB050002D308F145
:10041000010801E092185B41B8F1000F03DA0020F7
:100420000146BDE8F08D00204FF480110646844659
:100430000EE0171B73EB050705D3121B63EB0503D7
:1004400006434CEA010C49084FEA300092185B4120
:1004500050EA0107EDD152EA030012D082EA04000B
:1004600083EA0501084305D0101BAB4106D20122E7
:10047000002306E000224FF0004302E06FF001028B
:1004800053101AEB06004CEB085110EB0A0041EB3D
:100490000B01BDE8F04D00F0B2B8962300221146E2
:1004A00000F07FB800F0004230F000400AD0C10DEB
:1004B00001F56071C0F3160042EA0151C20840071D
:1004C0001143704700200146704701F0004330B4EB
:1004D00021F0004150EA010206D00A0DA2F5607237
:1004E000C1F31301002A02DC30BC00207047440F26
:1004F00044EAC104C100E01830BC00EBC25000F077
:1005000047B830B50B46014600202022012409E0FF
:1005100021FA02F59D4205D303FA02F5491B04FABC
:1005200002F52844151EA2F10102F1DC30BD2DE9CF
:10053000F05F0546002092469B4688460646814667
:1005400040241BE0284641464746224600F0ADF9CC
:1005500053465A46C01A914110D3114618462246B6
:1005600000F094F92D1A67EB01084F46224601204E
:10057000002100F08BF917EB00094E41201EA4F179
:100580000104DFDC484631462A464346BDE8F09F79
:100590000029A8BF7047401C490008BF20F0010097
:1005A000704710B4B0FA80FC00FA0CF050EA010475
:1005B00004BF10BC704749B1CCF1200421FA04F407
:1005C00011FA0CF118BF012121430843A3EB0C01E0
:1005D000CB1D4FEA00614FEA102042BF002010BC43
:1005E000704700EBC35010440029A4BF10BC7047F3
:1005F000401C490008BF20F0010010BC704710B536
:10060000141E73F1000408DA401C41F10001921835
:100610005B411A4301D120F0010010BD2DE9F04DDE
:1006200092469B4611B1B1FA81F202E0B0FA80F233
:100630002032904600F02AF904460F4640EA0A00AC
:1006400041EA0B0153465A46084313D0114653EA78
:10065000010019D0C8F14002504600F026F90546C5
:100660000E4650465946424600F010F9084305D060
:10067000012004E020463946BDE8F08D0020054306
:1006800046EAE0762C4337430A986305E40AA0EB78
:1006900008000022FD0A44EA47540A3002D500202F
:1006A0000146E9E7010510196941DDE9084500192E
:1006B0006941BDE8F04DA2E72DE9FE4F804681EA91
:1006C0000300C00F0C46009021F0004123F00045CC
:1006D000B8EB0200A94105D24046214690461C468F
:1006E0000B46024623F00040104347D0270DC7F3C6
:1006F0000A00C3F30A510290401A019040286BDAB5
:10070000C3F3130040F4801B0098924620B10023ED
:10071000D2EB030A63EB0B0B01985946C0F1400280
:10072000504600F0B3F806460D4650465946019A29
:1007300000F0CBF810EB08006141002487EA115269
:1007400084EAE7731A4340D0009A62B3019A012AFF
:100750004FEA075215DC001B61EB02014FF000422B
:1007600002EA0752CDE90042001C41F580113246F1
:100770002B46FFF753FF03B0BDE8F08F40462146FC
:10078000F9E7001B61EB0201001C41F58013001822
:100790005B412018A2F5001747EB030140EAD57032
:1007A000B6196D4111E06D084FEA360645EAC0758D
:1007B0004FEA0752001B61EB0201001C41F580115A
:1007C00049084FEA30000019514132462B4603B028
:1007D000BDE8F04FFFF713BF00980122400000234F
:1007E000D0EB020263EBE073009821464FEAE0741D
:1007F000B8EB000061EB0401E9E783F000435BE73D
:1008000081F0004158E7C1F30A52C1F3130140F2ED
:10081000FF3341F480119A4202DA0020014670470A
:1008200040F233439A42A2F2334202DC524200F0D9
:100830003CB800F02BB8000030B5041E71F1000484
:1008400004DB4FF00044404264EB0101141E73F1DD
:10085000000405DB1C464FF00043524263EB0403E7
:10086000994208BF904230BD064C074D06E0E06853
:1008700040F0010394E8070098471034AC42F6D3E7
:10088000FFF738FC98370008B8370008202A04DB47
:10089000203A00FA02F1002070479140C2F1200393
:1008A00020FA03F3194390407047202A04DB203AD2
:1008B00021FA02F00021704721FA02F3D040C2F180
:1008C00020029140084319467047202A06DBCB17C7
:1008D000203A41FA02F043EAE07306E041FA02F3FB
:1008E000D040C2F12002914008431946704721B11F
:1008F000826842F00102826003E0826822F0010215
:100900008260704721B1826842F48072826003E0A5
:10091000826822F4807282607047014600208A68F3
:1009200002F004020AB1012000E0002070470146F5
:1009300000208A6802F008020AB1012000E00020CD
:100940007047000030B502460020002350680F4C6D
:1009500020400D790C6844EA0524204350609068DB
:100960000B4C2040D1E902542C434D7944EA450414
:1009700020439060D06A20F470000C7C641EE4B2C6
:10098000234340EA0350D06230BD0000FFFEF0FF79
:10099000FDF7F1FFF0B504460D4600200021092DBA
:1009A00011DDE068A5F10A0606EB4607072606FA00
:1009B00007F18843A5F10A0606EB460603FA06F19D
:1009C0000843E0600CE0206905EB4507072606FABE
:1009D00007F1884305EB450603FA06F10843206159
:1009E000072A0FDA606B561E06EB86071F2606FAEB
:1009F00007F18843561E06EB860605FA06F1084302
:100A0000606322E00D2A0FDA206BD61F06EB860703
:100A10001F2606FA07F18843D61F06EB860605FA5D
:100A200006F10843206310E0E06AA2F10D0606EB30
:100A300086071F2606FA07F18843A2F10D0606EB8A
:100A4000860605FA06F10843E062F0BD816841F0D0
:100A500008018160704721B1826842F4A00282607F
:100A600003E0826822F4A00282607047816841F04E
:100A7000040181607047000010B51F48006850B93C
:100A80001E48006838B902E01DA001F0C7FF01F060
:100A900051F90028F8D120480078012810D11F48CA
:100AA0000078012807D100F027FF1DA001F0B6FF54
:100AB00000201A49087020A001F0B0FF01F0EAF808
:100AC0002348007801280CD122A001F0A7FF00F0F4
:100AD0003DFF00F011FF25A001F0A0FF00201C4900
:100AE000087028480078012804D101F05FF8002040
:100AF0002449087010BD00001C00002018000020D0
:100B00000D0A2E2E2E2E2E2EBCECB2E2D6D02E2E7C
:100B10002E2E2E2E0D0A0000200000202100002085
:100B20000D0AA3A1A3A1BFAACABCB2C9BCAFA3A10D
:100B3000A3A10D0A000000000D0A2E2E2E2E2E2E2F
:100B4000B2C9BCAFD6D02E2E2E2E2E2E0D0A0000EE
:100B5000240000200D0A2E2E2E2E2E2EB2C1B3FD03
:100B6000D6D02E2E2E2E2E2E0D0A00000D0AA3A159
:100B7000A3A1B2C1B3FDB3C9B9A6A3A1A3A10D0A94
:100B8000000000002200002008B50121282001F00B
:100B9000A7FB4FF6FF70ADF8000010208DF80300A2
:100BA00003208DF8020069460E4800F08BFA4FF4DE
:100BB0007060ADF8000010208DF8030003208DF860
:100BC00002006946084800F07DFA00BF4FF6FF7149
:100BD000044800F00BFB4FF47061034800F006FB83
:100BE00000BF08BD00140140000C014000BFFEE73B
:100BF00021B1026842F00102026004E002684FF68F
:100C0000FE731A400260704701684FF6FE72114091
:100C100001600021016041608160C1604B498842F0
:100C200008D14A490839496841F00F01474A083A52
:100C300051608AE045491431884208D14349083956
:100C4000496841F0F001414A083A51607DE03F496E
:100C50002831884208D13D490839496841F470611A
:100C60003A4A083A516070E038493C31884208D12C
:100C700036490839496841F47041344A083A5160AC
:100C800063E032495031884208D130490839496817
:100C900041F470212D4A083A516056E02B496431E5
:100CA000884208D129490839496841F47001274A26
:100CB000083A516049E025497831884208D12349F2
:100CC0000839496841F07061204A083A51603CE0B7
:100CD0001F49884206D1011F096841F00F01021F18
:100CE000116032E01A491431884208D11849091FAD
:100CF000096841F0F001164A121F116025E01449FD
:100D00002831884208D11249091F096841F47061ED
:100D10000F4A121F116018E00D493C31884208D17A
:100D20000B49091F096841F47041094A121F1160FB
:100D30000BE007495031884207D10549091F09686E
:100D400041F47021024A121F1160704708000240EE
:100D50000804024010B50022026847F6F0739A4377
:100D60000C6A8B6823430C6923434C6923438C69C9
:100D70002343CC6923434C6A23438C6A23431A439D
:100D80000260CB6843600B6883604B68C36010BD32
:100D90007047000010B56FF0040001F0A1FB0A4895
:100DA00000680A49B0FBF1F009490870084600786C
:100DB00000EB4001C1EBC0104FF6FF7101EAC0002B
:100DC0000449088010BD00000400002000127A00D1
:100DD00000000020020000200146114A12884A4308
:100DE0004FF0E0235A6100229A611A46126942F0DC
:100DF00001021A6100BF4FF0E022106900F0010209
:100E00001AB100F48032002AF5D04FF0E0221269C6
:100E100022F001024FF0E0231A6100229A6170472C
:100E20000200002010B50121094800F0D6F950B9A0
:100E30006420FFF7D1FF0121054800F0CEF910B979
:100E4000012004490870012000F018F810BD0000CE
:100E5000001001402300002010B50421054800F0D7
:100E6000BCF910B9012004490870042000F006F80C
:100E700010BD000000100140220000200149086060
:100E80007047000014040140002123498279002AA0
:100E90003AD00A46126803689A430B461A600A1D44
:100EA000126803689A430B1D1A60027911440A689C
:100EB00003681A430A60184A0832126803689A43A2
:100EC000154B08331A601A1D126803689A43124BB7
:100ED0000C331A604279102A0ED11A1F1268036867
:100EE0001A430D4B08331A601A1D126803681A431F
:100EF000094B0C331A600DE00749427911440A6826
:100F000003681A430A6005E0027911440A6803681D
:100F10009A430A60704700000004014030B504465F
:100F200004254FF4302000F07BF80546042D17D13E
:100F30000C48006940F002000A4908610846446113
:100F4000006940F0400008614FF4302000F068F87C
:100F500005460448006941F6FD71084001490861F1
:100F6000284630BD0020024004200B49C96801F02A
:100F7000010109B101200EE00749C96801F004012F
:100F800009B1022007E00449C96801F0100109B164
:100F9000032000E0042070470020024078B5064698
:100FA0000C46042500200090E80200F039F80546C0
:100FB000042D24D11348006940F001001149086153
:100FC0003480E80200F02CF80546042D10D1B01C46
:100FD0000090200C00990880E80200F021F80546F6
:100FE0000848006941F6FE7108400649086106E0BC
:100FF0000448006941F6FE7108400249086128462C
:1010000078BD0000002002400248034948600348C0
:10101000486070472301674500200240AB89EFCD4F
:1010200000B502460423FFF79FFF034603E0FFF7E6
:101030009BFF0346521E012B01D1002AF7D102B9B2
:101040000523184600BD10B50B46002104E00468D6
:1010500042F82140491C001D9942F8D310BD2DE9EA
:10106000F04105460E461746002406E057F82410C6
:101070002846FFF793FF641C2D1DB442F6D3BDE84C
:10108000F081000030B500228B071C0F0F2303FAFC
:1010900004F20B4B8C1053F824309343084C8D1002
:1010A00044F8253023468C1053F824308C07240F45
:1010B00000FA04F42343024C8D1044F8253030BD6F
:1010C000080001402DE9F0410246002500260020DD
:1010D00000230024002791F803C00CF00F0591F8BD
:1010E00003C00CF0100CBCF1000F03D091F802C04B
:1010F0004CEA050591F800C0BCF1000F31D014682E
:1011000000202BE04FF0010C0CFA00F3B1F800C006
:101110000CEA03069E4220D183004FF00F0C0CFA1C
:1011200003F7BC4305FA03FC4CEA040491F803C03E
:10113000BCF1280F06D14FF0010C0CFA00FCC2F8EC
:1011400014C00AE091F803C0BCF1480F05D14FF07C
:10115000010C0CFA00FCC2F810C0401C0828D1D3C6
:101160001460B1F800C0BCF1FF0F34DD54680020FA
:101170002EE000F1080C4FF0010808FA0CF3B1F86A
:1011800000C00CEA03069E4221D183004FF00F0CF1
:101190000CFA03F7BC4305FA03FC4CEA040491F88B
:1011A00003C0BCF1280F05D100F1080C08FA0CF8B7
:1011B000C2F8148091F803C0BCF1480F07D100F1C8
:1011C000080C4FF0010808FA0CF8C2F81080401C17
:1011D0000828CED35460BDE8F08102460020936811
:1011E0000B400BB1012000E00020704741617047C7
:1011F0000161704710B500F081FFFFF7C5FC10BD1D
:1012000070B500250A21084800F0EEFF012405E032
:10121000054830F814000544601CC4B2092CF7DB03
:10122000C5F3CF0070BD00006400002008B50121A7
:10123000084601F025F801214FF4017001F050F843
:101240004FF4004001F010F80120ADF80000032039
:101250008DF8020000208DF8030069460148FFF771
:1012600031FF08BD0008014000B591B03148FFF7DB
:10127000CBFC3148069031480790002008900A20A6
:10128000099000200A9080200B9040000C90800074
:101290000D9020200E9000020F900020109006A9C3
:1012A0002448FFF757FD01212248FFF7A1FC002049
:1012B00001908DF8080001208DF809004FF460209E
:1012C00003900020049001208DF8140001A91A4811
:1012D0004C38FFF737FB05230122002116484C3814
:1012E000FFF758FB012114484C38FFF70BFB012195
:1012F00011484C38FFF7FBFA0F484C38FFF7A6FBB4
:1013000000BF0D484C38FFF712FB0028F9D10A48FE
:101310004C38FFF7ABFB00BF07484C38FFF7FDFA2E
:101320000028F9D1012104484C38FFF794FB11B093
:1013300000BD0000080002404C2401406400002071
:1013400010B5FFF773FFFFF78FFF10BD10B5022137
:101350000448FFF742FF08B9002010BD4FF0FF30EE
:10136000FBE700000010014010B500F08FFA00F01C
:1013700061FA00F09DFA10BD08B50121442000F08B
:10138000AFFF4FF6FF70ADF8000010208DF803009E
:1013900003208DF8020069460D48FFF793FEF02008
:1013A000ADF8000010208DF8030003208DF8020036
:1013B00069460848FFF786FE00BF4FF6FF710448F4
:1013C000FFF716FFF0210348FFF712FF00BF08BD2B
:1013D000001801400008014070B505460E46002483
:1013E00004E005EB8420FFF799FD641CB442F8D3B8
:1013F00070BD0000F0B5024600250027002610460B
:1014000000F052F806460EB90020F0BD00231DE0A2
:101410001148824203D3A2F154073846F5E700246D
:1014200007E01068401C08B96D1C00E00025121D83
:10143000641C152CF5D3152D07D113B9A2F1540056
:10144000E3E7A2F1A8073846DFE75433B342DFD31E
:10145000A2F154073846D8E700000208F0B502466A
:10146000002500270026104600F01EF806460EB99B
:101470000020F0BD002312E0002407E01068401CAB
:1014800008B96D1C00E00025121D641C152CF5D355
:10149000152D03D1A2F154073846EAE75433B3427D
:1014A000EAD31046E5E7000001460A48814205D329
:1014B0000948814202D24FF4A84070470648814251
:1014C00005D30648814202D24FF4A840F5E7002038
:1014D000F3E700000058010800AC01080000020812
:1014E0002DE9F047054689469046002400271E480E
:1014F000854205D91D48854202D20120BDE8F0870A
:101500002846FFF777FF044600BFAC4219D10026FA
:1015100006E02068401C08B9241D00E002E0761CAB
:10152000152EF6D300BF152E01D10020E6E7424666
:1015300049462846FFF787FD4946404600F018F81F
:10154000DCE7424649462046FFF77DFD543C7F1CC0
:101550004946404600F00CF80028D6D1012F01D9A9
:101560003846CBE70020C9E7000002080058010810
:101570002DE9F04196B005460E46542101A8FEF72C
:10158000D8FD0027B8462F6D002405E055F824004B
:1015900001A941F82400641C701EA042F6D8810005
:1015A00001A800F00BFE8046474503D1002016B08D
:1015B000BDE8F0810120FAE72DE9F04196B005463B
:1015C0000E4617460024A0461A48854203D901203A
:1015D00016B0BDE8F0810EB90020F9E72846FFF704
:1015E0003DFF04462846FFF75FFF804612488442CD
:1015F0001ED3104884421BD800BF05EB0800A04250
:1016000004D82C4615212846FFF7E6FE3A46314617
:101610002046FFF724FD01AA15212046FFF760FFB1
:101620005434152101A8FFF7A3FF0028E5D1CFE727
:101630000120CDE7000002080058010810B500F0B5
:1016400025F800F049F810BD10B504460A480078A6
:1016500080B90A4804600068094908600020094907
:101660000870FFF7EBFF0121074800F0E6FF0120BB
:101670000149087010BD0000340000202C0000203B
:101680003000002028000020000400400EB5012199
:10169000022000F005FE0F4800F0DCFF48F69F40F6
:1016A000ADF8040040F2CF70ADF800000020ADF8B6
:1016B0000600ADF802006946064801F0D1F80121A4
:1016C000044800F0B7FF01221146024801F0BFF8BC
:1016D0000EBD00000004004008B54FF4407000F05B
:1016E00063FD1D208DF8000000208DF801008DF8AD
:1016F000020001208DF80300684600F01DFD08BDC2
:1017000010B500F027F800F04BF810BD10B50648F2
:10171000007840B9FFF7F4FF0121044800F08DFF85
:1017200001200149087010BD3C0000200008004065
:1017300010B506480078012806D10021044800F0C1
:101740007CFF00200149087010BD00003C00002013
:10175000000800400EB50121042000F0A1FD0F4853
:1017600000F078FF48F69F40ADF8040040F2CF70DB
:10177000ADF800000020ADF80600ADF802006946A3
:10178000064801F06DF80121044800F053FF0122E2
:101790001146024801F05BF80EBD00000008004051
:1017A00008B54FF4407000F0FFFC1E208DF80000DB
:1017B00000208DF801008DF8020001208DF8030053
:1017C000684600F0B9FC08BD00B585B001214804A9
:1017D00000F066FD0121042000F082FD0420ADF838
:1017E000100018208DF8130003208DF8120004A9B2
:1017F0000D48FFF767FC4FF4E13000900020ADF892
:101800000400ADF80600ADF80800ADF80C000820A3
:10181000ADF80A006946054801F08EF80121034839
:1018200001F070F805B000BD000801400044004020
:1018300000BFFEE71CB50420FFF720FB0120FFF7E7
:101840001DFB02210846FFF71DFC0420009000202C
:101850008DF804000C208DF8050001208DF806009D
:101860006846FFF711FB00210220FFF70BFC012067
:10187000009000208DF804000C208DF80500012058
:101880008DF806006846FFF7FFFA1CBD08B5012178
:10189000112000F025FD0720ADF8000048208DF84C
:1018A000030069460148FFF70DFC08BD0010014028
:1018B00008B54FF4407000F077FC08208DF8000068
:1018C00002208DF8010000208DF8020001208DF823
:1018D0000300684600F030FC06208DF8000002206E
:1018E0008DF8010001208DF802008DF80300684694
:1018F00000F022FC08BD000010B500241EE000BF6F
:101900004FF6FF710F48FFF771FCF0210E48FFF70B
:101910006DFC00BF4FF49670FFF75EFA00BF4FF604
:10192000FF710848FFF764FCF0210748FFF760FCEF
:1019300000BF4FF49670FFF74FFA641C022CDEDBF9
:1019400010BD0000001801400008014010B515212D
:101950000548FFF741FD15210448FFF73DFD002034
:101960000349086010BD00000058010800AC0108E0
:101970004400002070B50546002600244FE0102CDE
:1019800022DA01202D4A02EB8401C1F880014FF4D4
:10199000FA70FFF721FAFFF733FC25F8140035F849
:1019A000140040F63331884207DC002025F814008B
:1019B000234A02EB8401C1F8800100201F4A02EB98
:1019C0008401C1F8800128E04FF4FA70FFF704FAAF
:1019D0000121A4F108001B4A02EB8000C0F880112D
:1019E000FFF70EFC25F8140035F8140040F63331EB
:1019F00088420ADC002025F814000021A4F10C0024
:101A0000114A02EB8000C0F880110021A4F1080007
:101A10000C4A02EB8000C0F88011601CC4B2142C88
:101A2000ADDB142E09D108210848FFF7E1FB0020A7
:101A30000749087007A000F0F1FF70BD0080224246
:101A4000000023420080214200002142001001409A
:101A5000200000200D0AA3A1A3A1B5E7B3D8B2C905
:101A6000BCAFCDEAB1CFA3A1A3A10D0A0000000035
:101A700010B5044608210948FFF7B8FB084800687C
:101A8000012802D12046FFF775FF064800680128AB
:101A900002D1204600F008F810BD000000100140FF
:101AA000180000201C00002070B505460026002408
:101AB00053E0102C24DA01202F4A02EB8401C1F8F4
:101AC00080014FF4FA70FFF787F9FFF799FB25F8CB
:101AD000140035F8140040F2CD21884209DC0020C2
:101AE00025F81400254A02EB8401C1F88001701C1E
:101AF000C6B20020204A02EB8401C1F880012AE02E
:101B00000121A4F108001E4A02EB8000C0F88011F8
:101B10004FF4FA70FFF760F9FFF772FB25F8140035
:101B200035F8140040F2CD2188420CDC002025F865
:101B300014000021A4F10C00124A02EB8000C0F84E
:101B40008011701CC6B20021A4F108000C4A02EBFF
:101B50008000C0F88011601CC4B2142CA9DB142EC4
:101B600009D108210848FFF743FB00200749087006
:101B700007A000F053FF70BD008022420000234206
:101B8000008021420000214200100140200000207E
:101B90000D0AA3A1A3A1B5E7B3D8B2C9BCAFCDEAE2
:101BA000B1CFA3A1A3A10D0A000000002DE9F04FC1
:101BB0009DB0542107A8FEF7BCFA00200690002330
:101BC00007AA1521254800F027FA4FF0000A3FE048
:101BD00007A850F82A00401C18B9002007A941F8AE
:101BE0002A0007A951F82A00FEF757FC1C4901906A
:101BF000FEF734FB1B490290FEF7FEFA1A490390E8
:101C0000FEF7A2FA8346FEF74DFC184A184BCDE9C1
:101C10000401FEF761FB80460022164BFEF7CEFB67
:101C200006460022144BFEF7C9FB0446FEF74DFCA6
:101C300006900698FEF736FC044622460B460AF14B
:101C400001010EA000F0EAFE0AF101001FFA80FA7D
:101C5000BAF1140FBCDB1DB0BDE8F08F00580108CD
:101C600000F07F4500404E450000F0429A99999956
:101C700099990B4000A07440008076400D0A202006
:101C800042253032642020252E336620206D616885
:101C90000D0A000030B5B5B00025542120A8FEF78C
:101CA00048FA54210BA8FEF744FA2C216846FEF7A7
:101CB00040FA6846FFF7DCFE6B4620AA15211A4859
:101CC00000F0AAF9002412E020A850F82400401CDB
:101CD00018B9002020A941F824003DF8140020A9DB
:101CE00051F8241008440BA941F82400641C142C5A
:101CF000EAD350210BA800F061FA05461F950BAA04
:101D00001521094800F0F0F9084801680068401CF6
:101D1000064A1060022904D90BAA1521044800F0D4
:101D2000E3F935B030BD0000005801084400002040
:101D300000AC010870B50024002577480068401CFD
:101D4000002871D1754800680028FAD174480068ED
:101D50000028F6D173480068401C0028F1D1082102
:101D60007148FFF743FA00BF87E0102C3BDA0120EF
:101D70006E4A02EB8401C1F88001C820FFF72CF8FD
:101D8000FFF73EFA054640F6F34085420CD3B5F521
:101D9000805F09D20120664908700020654A02EB85
:101DA0008401C1F8800117E0B5F54F7F0DD340F2F3
:101DB0004C40854209D801205F49087000205D4AE7
:101DC00002EB8401C1F8800106E00120594A02EBD0
:101DD0008401C1F8800170BD0020544A02EB8401E7
:101DE000C1F8800146E00121A4F10800534A02EB4A
:101DF0008000C0F88011C820FEF7EEFFFFF700FA60
:101E0000054640F6F34085420FD3B5F5805F0CD20E
:101E10000120474908700021A4F10C00484A02EB58
:101E20008000C0F880111DE051E0B5F54F7F0FD361
:101E300040F24C4085420BD801203F4908700021F8
:101E4000A4F10C003E4A02EB8000C0F8801109E0CA
:101E50000121A4F10C003A4A02EB8000C0F8801185
:101E60000120B8E70021A4F10800344A02EB800009
:101E7000C0F880110025601CC4B2142CFFF675AFA9
:101E80002B480078012801D1254908602A480078AC
:101E9000012801D12149086008212348FFF7A8F94A
:101EA00028A000F0BBFD4FF4FA70FEF795FF00BFCD
:101EB0004FF6FF712B48FFF79BF9F0212A48FFF7F7
:101EC00097F900BF29A000F0A9FD002083E70821B1
:101ED0001548FFF78BF901202B490860C820FEF751
:101EE0007BFFFFF78DF9054608210F48FFF780F9C2
:101EF00000200E49C1F8800140F24C40854203D8D1
:101F000001200649086002E001200549086017A089
:101F100000F084FD00205EE7005801081C0000204E
:101F20001800002000AC010800100140008022428F
:101F30004000002000002342410000200080214298
:101F4000000021420D0AA3A1A3A1CAD7B4CEC9CFD4
:101F5000B5E7BCECB2E2B3C9B9A620A3A1A3A10D19
:101F60000A00000000180140000801400D0AA3A16A
:101F7000A3A1C7EBB0B4CFC2BFAACABCB0B4BCFC6B
:101F800020A3A1A3A10A00008081224210B500F085
:101F900015F828B90120044908700449087002E0C6
:101FA0000320FFF751FB10BD21000020200000207E
:101FB00000200149087070474800002010B521E05A
:101FC000FFF7C4F9B8B9FFF7A1FB0F480078012863
:101FD00018D100200C4908700C480078401C0B49AF
:101FE00008700846007803280CDBFFF7A1FB0020EF
:101FF0000649087010BDFFF79BFB002003490870DD
:10200000401EF7E7DCE70000350000204800002014
:1020100010B5FFF7BBFF10BD2DE9F047814688469C
:1020200015461E460027BA462A4641464846FFF74F
:1020300057FA0746012F1CD12A4641461B48FFF795
:102040004FFA012815D11AA000F0E8FC012080F316
:10205000138800BF00BF2248006800F4E0602149F7
:102060000843001D1E490860BFF34F8F00BF00BF2B
:10207000FEE7C6B1012F16D9002409E055F8241057
:10208000781E36F8142000FB021045F82400641C6A
:10209000142CF3D3A8F101008100284600F08EF83B
:1020A0008246C5F850A0BDE8F087000000AC0108EA
:1020B000A3A1A3A1A3A1A3A1CAFDBEDDC8ABB2BFCA
:1020C000B3F6B4EDA3ACC7EBC7E5B3FDCBF9D3D002
:1020D000CAFDBEDDA3A1A3A1A3A1A3A1000000008E
:1020E0000CED00E00000FA0570B504460D461646FA
:1020F000324629462046FFF75FFA70BD08B5012138
:10210000102000F0EDF80820ADF8000010208DF848
:10211000030003208DF8020069460448FEF7D2FF51
:1021200008210248FFF764F808BD000000100140D4
:1021300000BFFEE77047000070B5002100230F22AA
:10214000C47804B3154C246804F4E064C4F5E06476
:10215000210AC1F10403CA40447804FA03F18478E7
:102160001440214309010E4C0678A155047804F06F
:102170001F050124AC4005786D11AD0005F1E02587
:10218000C5F8004109E0047804F01F050124AC40C3
:10219000044D0678761145F8264070BD0CED00E040
:1021A00000E400E080E100E002490143024A1160DE
:1021B000704700000000FA050CED00E030B5034662
:1021C0000C464FF0FF32002108E0585C5040C0B28E
:1021D000044D55F8200080EA1222491CA142F4D394
:1021E000D04330BD983300082DE9F04105460F4635
:1021F00000247E1EB5F80080012F01D8BDE8F081D3
:102200001FE00BE035F81600404506DA35F81620D9
:102210002046641C25F8102002E0761EA642F1DC60
:1022200000BF0BE035F81400404506DD35F81420FA
:102230003046761E25F8102002E0641CB442F1DB23
:1022400000BFB442DDDB25F8148021462846FFF7A5
:10225000CBFF3A1B511E05EB4402901CFFF7C4FF55
:1022600000BFCBE77047000001460020034A5068DA
:1022700020F44040084350607047000000100240C6
:1022800029B1064A52690243044B5A6104E0034AE9
:1022900052698243014B5A617047000000100240AE
:1022A00029B1064AD2690243044BDA6104E0034AC9
:1022B000D2698243014BDA6170470000001002408E
:1022C00029B1064A12690243044B1A6104E0034A29
:1022D00012698243014B1A617047000000100240EE
:1022E00029B1064A92690243044B9A6104E0034A09
:1022F00092698243014B9A617047000000100240CE
:1023000029B1064AD2680243044BDA6004E0034A6A
:10231000D2688243014BDA6070470000001002402F
:1023200030B500210022002400232D4D6D6805F0FA
:102330000C0121B1042905D0082923D105E0294D3C
:10234000056022E0274D05601FE0254D6D6805F40E
:102350007012234D6D6805F48034022505EB92421E
:102360001CB9214D554305600BE01D4D6D6805F40A
:1023700000351DB11C4D5543056002E0194D554314
:10238000056002E0174D056000BF00BF144D6D6889
:1023900005F0F0010909154D6B5C0568DD404560ED
:1023A0000F4D6D6805F4E061090A104D6B5C4568DE
:1023B000DD4085600A4D6D6805F46051C90A0B4D1A
:1023C0006B5C4568DD40C560054D6D6805F44041B6
:1023D000890B074D6B5CC568B5FBF3F5056130BD36
:1023E0000010024000127A0000093D004900002060
:1023F00059000020704710B500F002F810BD000031
:102400000CB50020019000903348006840F4803003
:102410003149086000BF3048006800F40030009087
:102420000198401C0190009818B90198B0F5A06F70
:10243000F1D12948006800F4003010B1012000906B
:1024400001E0002000900098012843D12348006853
:1024500040F01000214908600846006820F00300A1
:1024600008600846006840F0020008601A484068AA
:10247000194948600846406848600846406840F48A
:10248000806048600846406820F47C104860084638
:10249000406840F4E81048600846006840F08070EA
:1024A000086000BF0C48006800F000700028F9D0F8
:1024B0000948406820F00300074948600846406822
:1024C00040F00200486000BF0348406800F00C0084
:1024D0000828F9D10CBD0000001002400020024085
:1024E000042808D14FF0E021096941F004014FF0C0
:1024F000E022116107E04FF0E021096921F00401B9
:102500004FF0E022116170477047000010B513488A
:10251000006840F001001149086008464068104911
:1025200008400E494860084600680E4908400B49BB
:1025300008600846006820F480200860084640686B
:1025400020F4FE0048604FF41F008860FFF753FF3F
:102550004FF000600449086010BD00000010024008
:102560000000FFF8FFFFF6FE08ED00E010B50121C6
:10257000184800F063F930B30121164800F05AF80A
:1025800015480078012824D101211448FEF725FEC2
:10259000D0B913480068401E1149086098B901205D
:1025A00010490870104800680D49086001200F4963
:1025B000087000200E4908700021064800F03DF820
:1025C00000200549087004E000200349087005490F
:1025D000087010BD000400402300002000100140DE
:1025E00030000020240000202C00002028000020C3
:1025F0003400002010B501210B4800F01FF990B104
:102600000121094800F016F801200849087008481F
:10261000006807490968491C054A401C116010B947
:1026200000201146086010BD000800403500002061
:1026300038000020CA430282704721B1028842F06C
:102640000102028004E002884FF6FE731A40028005
:102650007047000010B504466848844208D1012143
:10266000C014FFF74DFE0021E014FFF749FEC4E05F
:10267000B4F1804F08D101210846FFF721FE002167
:102680000120FFF71DFEB8E05D48844208D101211A
:102690000220FFF715FE00210220FFF711FEACE03B
:1026A0005848844208D101210420FFF709FE002187
:1026B0000420FFF705FEA0E05348844208D1012121
:1026C0000820FFF7FDFD00210820FFF7F9FD94E049
:1026D0004E48844208D101211020FFF7F1FD00216E
:1026E0001020FFF7EDFD88E04948844208D1012120
:1026F0002020FFF7E5FD00212020FFF7E1FD7CE031
:102700004448844208D101214014FFF7F9FD00211B
:102710006014FFF7F5FD70E03F48844209D10121C4
:10272000C804FFF7EDFD00214FF40020FFF7E8FD9E
:1027300063E03A48844209D101210805FFF7E0FD32
:1027400000214FF48010FFF7DBFD56E0344884424F
:1027500009D101214805FFF7D3FD00214FF40010F6
:10276000FFF7CEFD49E02F48844208D101214020E7
:10277000FFF7A6FD00214020FFF7A2FD3DE02A481B
:10278000844208D101218020FFF79AFD002180209A
:10279000FFF796FD31E02548844208D101218015DC
:1027A000FFF78EFD0021A015FFF78AFD25E02048E8
:1027B000844209D101210804FFF7A2FD00214FF452
:1027C0008030FFF79DFD18E01A48844209D10121AD
:1027D0004804FFF795FD00214FF40030FFF790FD0E
:1027E0000BE01548844208D101218804FFF788FDD9
:1027F00000214FF48020FFF783FD10BD002C014025
:102800000004004000080040000C004000100040A0
:102810000014004000340140004C014000500140D1
:102820000054014000180040001C004000200040FF
:1028300000400140004401400048014002460020A1
:10284000138A0B400BB1012000E0002070471AB141
:1028500083890B43838102E083898B4383817047A3
:10286000002202881D4B98420ED01D4B98420BD07F
:10287000B0F1804F08D01B4B984205D01A4B9842BC
:1028800002D01A4B984204D14FF68F731A404B88EE
:102890001A43174B984207D0164B984204D04FF674
:1028A000FF431A40CB881A4302808B8883850B88AC
:1028B00003850A4B98420BD0094B984208D00E4B27
:1028C000984205D00D4B984202D00D4B984201D151
:1028D0000B7A03860123838270470000002C01409D
:1028E000003401400004004000080040000C00409B
:1028F000001000400014004000400140004401402E
:102900000048014021B1828942F40052828104E0F2
:1029100082894DF6FF731A4082817047024600207B
:10292000B1F5007F00D100BF13880B400BB101202F
:1029300000E00020704700002DE9F04786B0054612
:102940000E460024A24600BFA1460027B08900B170
:1029500000BF2F462C8A4CF6FF700440F0880443D9
:102960002C82AC894EF6F3100440B08831890843BC
:10297000718908430443AC81AC8A4FF6FF400440A0
:10298000B0890443AC8201A8FFF7CAFC1F48874204
:1029900002D1DDF810A001E0DDF80CA0A88900F458
:1029A000004040B10AEBCA0000EB0A103168490050
:1029B000B0FBF1F807E00AEBCA0000EB0A1031683F
:1029C0008900B0FBF1F86420B8FBF0F004012009A5
:1029D000642101FB1089A88900F4004040B1322035
:1029E00000EBC900B0FBF1F000F00700044308E081
:1029F000322000EB09106421B0FBF1F000F00F0071
:102A000004432C8106B0BDE8F08700000038014087
:102A1000C1F308028280704700BFFEE70FB4054B88
:102A200010B503A9044A029800F0DAF810BC5DF86A
:102A300014FB0000113300086000002002E008C809
:102A4000121F08C1002AFAD170477047002001E028
:102A500001C1121F002AFBD1704700002DE9FF5F62
:102A600082B00021DDE90430020DDDF840B00343FF
:102A700018D044F61050A2F2FF32424315141198B8
:102A800001281FD0A5EB0B00401C5FEA000A4FF0A5
:102A900000064E4FDFF83891B046504615D5CAF1C2
:102AA000000413E0119801244AA3012801D16FEA20
:102AB0000B010298119AC0E90031C0E9024206B048
:102AC000BDE8F09FCBF10000DFE704460021404A5B
:102AD000491842EB0450CDE9001012E0E00707D09E
:102AE00032463B4640464946FDF7F6FB804689465E
:102AF00032463B4610461946FDF7EEFB06460F46AA
:102B00006410002CEAD1DDE90401DDE90023BAF10B
:102B1000000F06DAFDF7E0FB42464B46FDF7DCFB13
:102B200005E0FDF74BFC42464B46FDF747FC0446EB
:102B30000E460022284BFDF77FFE03D84FF0FF30F2
:102B4000014607E00022254B20463146FDF7B4FD43
:102B5000FDF759FE102409E0002C0ADB0A220023AD
:102B6000FDF7E5FC039B30321A55641E50EA010262
:102B7000F2D1641C039AC4F111031444119A012A7E
:102B800003D0012208430DD10AE0084304D00020FD
:102B90004FF0110B119072E7A3EB0B056D1E0DE0CA
:102BA0005B4504DD4FF0000205F1010504E003DAA6
:102BB0004FF00002A5F10105002AECD0029811990E
:102BC000C0E90231C0E9004579E700000000144087
:102BD0000000F03F300000000000F0430000E03F44
:102BE0002DE9FF4F95B09B468946064600250FE22A
:102BF000252877D100242746F84A0121059400E0D2
:102C0000044316F8013F203B01FA03F01042F7D1CC
:102C100030782A2811D06FF02F033078A0F13002DD
:102C2000092A16D8059A44F0020402EB820203EB4B
:102C300042021044761C0590EFE759F8042B0592E8
:102C4000002A03DA504244F40054059044F0020490
:102C5000761C30782E2816D116F8010F44F00404A3
:102C60002A280DD06FF02F023078A0F13003092B05
:102C700009D807EB870302EB4303C718761CF3E779
:102C800059F8047B761C30786C280FD006DC4C2871
:102C900017D068280DD06A2814D104E0742810D009
:102CA0007A280FD10DE044F400140AE044F48014B3
:102CB00001E044F440147278824202D104F5801499
:102CC000761C761C307866280BD013DC582877D019
:102CD00009DC002875D04528F6D04628F4D04728CE
:102CE0001AD19DE118E0632835D0642879D0652891
:102CF00012D195E1702873D008DC6728F1D06928DB
:102D00006FD06E280DD06F2806D1B5E073282CD077
:102D1000752875D0782874D05A46179990476D1C3D
:102D200075E1C4F30250022809D003280DD0D9F868
:102D3000001004280DD00D6009F1040967E1D9F8ED
:102D40000010EA17C1E90052F6E7D9F800100D802B
:102D5000F2E70D70F0E719F8041B8DF80010002061
:102D60008DF80100EA46012003E059F804AB4FF06A
:102D7000FF3061074FF0000102D40DE008F10101BE
:102D80008846B9420FDA8045F8DB1AF808100029A6
:102D9000F4D108E008F1010188468142FADB1AF813
:102DA00008100029F6D105985B46A0EB08072146DC
:102DB0003846179A00F094FA284400EB080507E01B
:102DC0004DE029E10DE01AF8010B5A46179990479A
:102DD000B8F10108F7D25B4621463846179A13E14D
:102DE00042E00A220092C4F302524FF0000A022A83
:102DF00008D059F804CB032A4FEAEC710AD00DE051
:102E000029E02AE009F1070121F00702F2E802C1F6
:102E1000914609E00FFA8CFC4FEAEC71042A03D1C9
:102E20004FFA8CFC4FEAEC71002907DA0A460021C0
:102E3000DCF1000C61EB02012D2202E0220504D539
:102E40002B228DF80420012203E0E20701D020228A
:102E5000F7E7904659E00A2102E010220DE0102128
:102E60004FF0000A00910BE010224FF0000A44F0EE
:102E700004040827009203E008224FF0000A0092A1
:102E8000C4F30252022A05D059F804CB0021032AC8
:102E900008D009E009F1070121F00702F2E802C1B8
:102EA000914605E01FFA8CFC042A01D10CF0FF0CBE
:102EB0004FF00008220728D5702806D0009B83F029
:102EC000100353EA0A0305D00EE040228DF80420D7
:102ED000012208E05CEA010206D030228DF80420CD
:102EE0008DF8050002229046009B83F0080353EA08
:102EF0000A030AD15CEA010201D1620705D530223A
:102F00008DF804204FF001087F1E582804D034A00B
:102F100003900EA802900DE036A0F9E753466046F4
:102F2000009AFDF704FB84460398825C0298401ED9
:102F3000029002705CEA0100F0D1029806A9081A1A
:102F400000F1200A600702D524F4803400E0012754
:102F5000574502DDA7EB0A0000E0002000EB0A0164
:102F6000009005984144401A0590E00306D45B4662
:102F70002146179A059800F0B3F90544002706E0AA
:102F800001A85A46C05D179990476D1C7F1C4745A4
:102F9000F6DBE0030CD55B462146179A059800F056
:102FA0009FF9054404E030205A46179990476D1C5C
:102FB0000099481E00900029F5DC08E0029802996B
:102FC0005A460078491C0291179990476D1CBAF136
:102FD0000001AAF1010AF1DC65E100000928010005
:102FE000303132333435363738396162636465667F
:102FF0000000000030313233343536373839414241
:10300000434445460000000000F058F90544761C92
:10301000307800287FF4ECAD19B02846BDE8F08F79
:10302000620700D4062709F1070222F0070CFCE82A
:103030000223E14603F000485FEA080C02D00FF2D9
:10304000702C0DE05FEA045C02D50FF2682C07E0FB
:103050005FEAC47C02D00FF2602C01E0AFF2700C8A
:103060004FF0FF3823F00043CDF850C065280CD056
:1030700006DC452809D046281DD047283DD13DE033
:10308000662818D067287ED138E00021112F01DB97
:10309000112000E0781CCDE9000106A90EA8FFF779
:1030A000DDFCDDE90F010E9A03910021009207F18A
:1030B000010A04914DE04FF000400097CDE9011066
:1030C00006A90EA8FFF7CAFCDDE90F0203920E9BCA
:1030D00011990022DDF80CA00093049211B9791C1B
:1030E00000EB010AB7EB0A0004D4C0F1FF3007F18E
:1030F000010A0490AAEB0700019044E0012F00DAD6
:1031000001270021112F01DD112000E03846CDE913
:10311000000106A90EA8FFF7A1FCDDE90F010E9A38
:103120000391002104910092BA4621070CD403991F
:10313000514500DA8A46BAF1010F05DD009AAAF17D
:103140000101515C302908D0B84202DA10F1040FB5
:1031500006DA0121CDE9011015E0AAF10101E9E744
:10316000002805DC049901440491AAEB000102E067
:10317000411C514500DD8A460499401A401C0190CB
:103180004FF000400290200704D40198504501DB25
:10319000CDF8048000208DF84F0002980DF14F0704
:1031A000B0F1004F25D02B200E9002984FF002086E
:1031B00000280CDA404202902D200E9007E00A21F0
:1031C0000298FDF79EF93031029007F8011DB8F121
:1031D0000001A8F10108F2DC02980028EFD1791E65
:1031E0000E980870307800F0200040F0450007F895
:1031F000020D12A8C01B00F107081498007800B156
:10320000012000EB0A01019801EBE07105984144AF
:10321000401A401E0590E00306D45B462146179AEB
:10322000059800F05DF805441498007818B15A46E6
:10323000179990476D1CE00324D55B462146179AE9
:10324000059800F04DF805441CE00498002807DBC1
:10325000DDE90301884203DD0098405C179901E035
:10326000179930205A469047049805F10105401CF3
:1032700004900198401E019004D12E205A461799BF
:1032800090476D1CBAF10001AAF1010ADDDC05E0EE
:1032900017F8010B5A46179990476D1CB8F10001B9
:1032A000A8F10108F4DC5B462146179A0598ABE6C5
:1032B0002D0000002B000000200000002DE9F0414F
:1032C000044600251E461746880404D405E0394606
:1032D0002020B0476D1C641EF9D52846BDE8F0815A
:1032E0002DE9F041044600251E469046C80301D54D
:1032F000302700E02027880404D505E04146384601
:10330000B0476D1C641EF9D52846BDE8F081000069
:1033100070B504460D46E1B20548FFF779FB00BFE2
:1033200040210348FFF7FAFA0028F9D0204670BD83
:103330000044004000201249086012490860124908
:103340000870124908701249087012490870FDF798
:1033500021FDFEF711F8FDF7F3FFFEF705F8FEF784
:10336000CFF9FDF747FFFEF72FFAFDF74DFEFEF709
:103370001FFE03E0FEF74CFEFDF77EFBFAE70000C0
:10338000180000201C000020210000202200002046
:103390002300002024000020000000009630077762
:1033A0002C610EEEBA51099919C46D078FF46A7039
:1033B00035A563E9A395649E3288DB0EA4B8DC7959
:1033C0001EE9D5E088D9D2972B4CB609BD7CB17ED9
:1033D000072DB8E7911DBF906410B71DF220B06AA9
:1033E0004871B9F3DE41BE847DD4DA1AEBE4DD6DB9
:1033F00051B5D4F4C785D38356986C13C0A86B64B9
:103400007AF962FDECC9658A4F5C0114D96C0663D8
:10341000633D0FFAF50D088DC8206E3B5E10694CB8
:10342000E44160D5727167A2D1E4033C47D4044BF8
:10343000FD850DD26BB50AA5FAA8B5356C98B242D8
:10344000D6C9BBDB40F9BCACE36CD832755CDF4558
:10345000CF0DD6DC593DD1ABAC30D9263A00DE5188
:103460008051D7C81661D0BFB5F4B42123C4B35678
:103470009995BACF0FA5BDB89EB802280888055FF8
:10348000B2D90CC624E90BB1877C6F2F114C685858
:10349000AB1D61C13D2D66B69041DC760671DB0146
:1034A000BC20D2982A10D5EF8985B1711FB5B60618
:1034B000A5E4BF9F33D4B8E8A2C9077834F9000F58
:1034C0008EA8099618980EE1BB0D6A7F2D3D6D08F8
:1034D000976C6491015C63E6F4516B6B62616C1CE8
:1034E000D83065854E0062F2ED95066C7BA5011B18
:1034F000C1F4088257C40FF5C6D9B06550E9B712B8
:10350000EAB8BE8B7C88B9FCDF1DDD62492DDA1577
:10351000F37CD38C654CD4FB5861B24DCE51B53A97
:103520007400BCA3E230BBD441A5DF4AD795D83D97
:103530006DC4D1A4FBF4D6D36AE96943FCD96E34D7
:10354000468867ADD0B860DA732D0444E51D0333B7
:103550005F4C0AAAC97C0DDD3C710550AA410227C7
:1035600010100BBE86200CC925B56857B3856F2097
:1035700009D466B99FE461CE0EF9DE5E98C9D929F7
:103580002298D0B0B4A8D7C7173DB359810DB42E37
:103590003B5CBDB7AD6CBAC02083B8EDB6B3BF9A83
:1035A0000CE2B6039AD2B1743947D5EAAF77D29D0F
:1035B0001526DB048316DC73120B63E3843B6494EF
:1035C0003E6A6D0DA85A6A7A0BCF0EE49DFF0993EF
:1035D00027AE000AB19E077D44930FF0D2A308875F
:1035E00068F2011EFEC206695D5762F7CB6765800F
:1035F00071366C19E7066B6E761BD4FEE02BD3890F
:103600005A7ADA10CC4ADD676FDFB9F9F9EFBE8E6E
:1036100043BEB717D58EB060E8A3D6D67E93D1A1AE
:10362000C4C2D83852F2DF4FF167BBD16757BCA68E
:10363000DD06B53F4B36B248DA2B0DD84C1B0AAF2E
:10364000F64A0336607A0441C3EF60DF55DF67A8AE
:10365000EF8E6E3179BE69468CB361CB1A8366BC3E
:10366000A0D26F2536E2685295770CCC03470BBB8E
:10367000B91602222F260555BE3BBAC5280BBDB28E
:10368000925AB42B046AB35CA7FFD7C231CFD0B52E
:103690008B9ED92C1DAEDE5BB0C2649B26F263EC20
:1036A0009CA36A750A936D02A906099C3F360EEB2E
:1036B0008567077213570005824ABF95147AB8E2EE
:1036C000AE2BB17B381BB60C9B8ED2920DBED5E5CE
:1036D000B7EFDC7C21DFDB0BD4D2D38642E2D4F11E
:1036E000F8B3DD686E83DA1FCD16BE815B26B9F6AE
:1036F000E177B06F7747B718E65A0888706A0FFF0E
:10370000CA3B06665C0B0111FF9E658F69AE62F8CD
:10371000D3FF6B6145CF6C1678E20AA0EED20DD7CD
:103720005483044EC2B30339612667A7F71660D0ED
:103730004D476949DB776E3E4A6AD1AEDC5AD6D92D
:10374000660BDF40F03BD83753AEBCA9C59EBBDE4D
:103750007FCFB247E9FFB5301CF2BDBD8AC2BACAFD
:103760003093B353A6A3B4240536D0BA9306D7CD6D
:103770002957DE54BF67D9232E7A66B3B84A61C48D
:10378000021B685D942B6F2A37BE0BB4A18E0CC34D
:103790001BDF055A8DEF022DB8370008000000200E
:1037A000640000003C2A00081C3800086400002067
:1037B000140400004C2A00080000000000A24A0483
:1037C00000000000000000000102030406070809D1
:1037D00000000000000000000000000000000000E9
:1037E00000000000000000000000000000000000D9
:1037F00000000000000000000000000000000000C9
:10380000000000000001020304010203040607088F
:0C3810000902040608000000000000008F
:04000005080000ED02
:00000001FF
